:1009D200501400C0F9A4B0999282F880988883C616
:0609E200A1868E011A003F
:100904005391EF90E65D2290E740F0E490E68AF0A0
:1009140090E68B04F0D322850F82850E83A37402A4
:0D092400F022851382851283A37407F02250
:1006B80090E600E054E74410F000000090E6027471
:1006C80008F000000090E60374E0F000000090E6F7
:1006D80070E04480F00000007F647E001207E9901B
:1006E800E6017443F000000090E610E0547FF0004B
:1006F800000090E611E0547FF000000090E61274CC
:10070800E0F000000090E613E0547FF00000009055
:10071800E614E0547FF000000090E615E0547FF006
:1007280000000090E6047480F00000007402F000FD
:1007380000007404F00000007406F0000000740863
:10074800F0000000E4F000000090E618740DF000DE
:050758000000D20022A8
:040A4400000000228C
:0205FE00D32206
:020A4C00D322B3
:020A4E00D322B1
:020A5000D322AF
:1008A60090E680E030E70F90E6207402F00000004A
:1008B600E490E621800DE490E620F000000090E64A
:0F08C600217440F000000090E6BAE0F51BD32249
:060A3800E51B12090B2270
:080A300090E6BAE0F51AD322AA
:060A3E00E51A12090B226B
:020A5200D322AD
:020A5400D322AB
:020A5600D322A9
:020A5800D322A7
:1009E900C0E0C083C082D2011209047401F0D08230
:0509F900D083D0E032C4
:1000EC00C0E0C083C0821209047404F0D082D083B3
:0300FC00D0E0321F
:100A1300C0E0C083C0821209047402F0D082D08384
:030A2300D0E032EE
:10098800C0E0C083C08285140E85150F12091B852F
:100998000A12850B131209261209047410F0D0826A
:0509A800D083D0E03215
:1009FE00C0E0C083C082D2031209047408F0D08212
:050A0E00D083D0E032AE
:10082F00C0E0C083C08290E680E030E71A850A0EF0
:10083F00850B0F12091B85141285151312092690AB
:10084F00E6407403F0800C85140E85150F850A128F
:10085F00850B131209047420F0D082D083D0E032BC
:0100FF0032CE
:010A5A003269
:010A5B003268
:010A5C003267
:010A5D003266
:010A5E003265
:010A5F003264
:010A60003263
:010A61003262
:010A62003261
:010A63003260
:010A6400325F
:010A6500325E
:010A6600325D
:010A6700325C
:010A6800325B
:010A6900325A
:010A6A003259
:010A6B003258
:010A6C003257
:010A6D003256
:010A6E003255
:010A6F003254
:010A70003253
:010A71003252
:010A72003251
:010A73003250
:010A7400324F
:010A7500324E
:010A7600324D
:010A7700324C
:010A7800324B
:010A7900324A
:010A7A003249
:010A7B003248
:010A7C003247
:0A0A260000010202030304040505A9
:10008000EC4EFEED4F2426F582740A3EF583E49390
:10009000FF3395E0FEEF24A1FFEE34E68F82F58377
:1000A0002290E6BCE0547EFF7E00E0D394807C008A
:1000B00022F0E5242401FFE43523FEE43522FDE4AB
:1000C00035218F248E238D22F52122AF28AE27AD36
:1000D00026AC25AB24AA23A922A821C302086FE5D8
:0C00E0002E2524F582E52D3523F5832222
:10046500E4F52CF52BF52AF529C203C200C202C218
:10047500011206B87E017F008E0C8F0D7516017571
:100485001714750A01750B2075140175153A751049
:100495000175115475080175097E75180275190ED7
:1004A50090E680E030E70E850A0E850B0F85141265
:1004B500851513800C85140E85150F850A12850B7D
:1004C50013EE54E07003020598752D00752E807E9D
:1004D500017F008E2F8F30C374909FFF74029ECFD3
:1004E5002402CF3400FEE48F288E27F526F525F566
:1004F50024F523F522F5211200CB500A1200DF74F2
:10050500CD1200B180F1E4F524F523F522F5211291
:1005150000CB5017E5302524F582E52F3523F583EB
:10052500E0FF1200DFEF1200B180E4852D0C852E6F
:100535000D74002480FF740134FFFEC3E5179FF599
:1005450017E5169EF516C3E50F9FF50FE50E9EF50B
:100555000EC3E5139FF513E5129EF512C3E50B9F38
:10056500F50BE50A9EF50AC3E5159FF515E5149EFD
:10057500F514C3E5119FF511E5109EF510C3E509C6
:100585009FF509E5089EF508C3E5199FF519E518D6
:100595009EF518D2E843D82090E668E04409F0902B
:1005A500E65CE0443DF0D2AF90E680E020E105D284
:1005B500041208D590E680E054F7F0538EF8C20394
:1005C500300105120292C2013003291205FE5024A2
:1005D500C2031209AD20001690E682E030E704E080
:1005E50020E1EF90E682E030E604E020E0E4120945
:0905F50031120A4C120A4480C7BD
:1002920090E6B9E0120880033E0003920103EE03E8
:1002A20002B80603380803320903260A032C0B049A
:1002B200241700000451120A4E400302045D90E626
:1002C200BBE024FE602414603724FD601214602514
:1002D2002406704DE50C90E6B3F0E50D020446E508
:1002E2001690E6B3F0E517020446E50E90E6B3F089
:1002F200E50F020446E51290E6B3F0E51302044668
:1003020090E6BAE0FFBFEE027F0412095DAA06A9D9
:10031200077B01EA494B6009EE90E6B3F0EF020475
:100322004602044C120A3E02045D120A3002045DC7
:100332001208A602045D120A3802045D120A524033
:100342000302045D90E6B8E0247F6015146019246E
:1003520002703AA200E43325E0FFA202E4334F80A8
:1003620018E490E740F080161200A140047D01805D
:10037200027D00120080E0540190E740F0E4A3F017
:1003820090E68AF090E68B7402F002045D02044C5F
:10039200120A54400302045D90E6B8E024FE60169F
:1003A2002402600302045D90E6BAE0B40105C200D3
:1003B20002045D02044C90E6BAE0702D1200A140E6
:1003C200047D0180027D00120080E054FEF090E680
:1003D200BCE05480131313541FFFE0540F2F90E618
:1003E20083F0E04420F002045D02044C120A5650ED
:1003F2006A90E6B8E024FE60192402705E90E6BAC4
:10040200E0B40104D200805390E6BAE06402604B8B
:1004120080381200A140047D0180027D001200801C
:100422008035120A50503490E6BCE024FB600D0483
:100432007018E51090E6B3F0E5118008E50890E643
:10044200B3F0E50990E6B4F0801190E6A0800812BE
:100452000A58500790E6A0E04401F090E6A0E0447C
:0204620080F028
:010464002275
:03003300020A4876
:040A480053D8EF325E
:100100001201000200000040501D9C61000001022D
:020110000001EC
:0A0114000A0600020000004001008E
:1001200009021900010100A0320904000001FF00CA
:0901300000000705820200020034
:10013A0009021900010100A0320904000001FF00B0
:09014A00000007058202400000DC
:10015400280000000001040001000000000000006D
:10016400000157494E5553420000000000000000B2
:08017400000000000000000083
:10017E008E00000000010500010084000000010057
:10018E0000002800440065007600690063006500E9
:10019E0049006E0074006500720066006100630025
:1001AE006500470055004900440000004E00000065
:1001BE007B00380039003500310031003300350046
:1001CE0033002D0065003600620032002D00330032
:1001DE006200630064002D003200610031003100C6
:1001EE002D0064006600370062003000620063007C
:0E01FE00660065003800310030007D00000012
:10020E000403090428036700690074006800750080
:10021E0062002E0063006F006D002F006D007200F3
:10022E0032003500380038003700360034035000F5
:10023E0072006F006A0065006300740020005000B9
:10024E005200490053004D00200046004900460070
:10025E004F002000420075006600660065007200C7
:10026E001003420075006C006B002D0049004E001B
:10027E0012034D0053004600540031003000300090
:04028E001700000055
:1009310090E682E030E004E020E60B90E682E030D1
:10094100E119E030E71590E680E04401F07F147E84
:0C095100001207E990E680E054FEF0225E
:1008D50030040990E680E0440AF0800790E680E065
:1008E5004408F07FDC7E051207E990E65D74FFF0B1
:0F08F50090E65FF05391EF90E680E054F7F02229
:1007E9008E318F3290E600E054187012E532240100
:1007F900FFE43531C313F531EF13F532801590E677
:1008090000E05418FFBF100BE53225E0F532E53161
:1008190033F531E5321532AE31700215314E6005CE
:060829001209C180EE225D
:02095D00A907E8
:10095F00AE18AF198F828E83A3E064037017AD01B9
:10096F0019ED7001228F828E83E07C002FFDEC3E0B
:08097F00FEAF0580DFE4FEFF7E
:01098700224D
:1009AD0090E682E044C0F090E681F04387010000BC
:0409BD000000002214
:1009C1007400F58690FDA57C05A3E582458370F949
:0109D1002203
:03004300020600B2
:03005300020600A2
:100600000209E900020A13000200EC000209FE00E0
:100610000209880002082F000200FF00020A5A00A7
:10062000020A5B00020A5C00020A5D00020A5E0028
:10063000020A5F00020A6000020A6100020A620008
:10064000020A6300020A5A00020A6400020A6500F4
:10065000020A6600020A6700020A6800020A6900CC
:10066000020A6A00020A5A00020A5A00020A5A00E2
:10067000020A6B00020A6C00020A6D00020A6E0098
:10068000020A6F00020A7000020A7100020A720078
:10069000020A7300020A7400020A7500020A760058
:1006A000020A7700020A7800020A7900020A7A0038
:0806B000020A7B00020A7C0033
:0300000002075D97
:0C075D00787FE4F6D8FD7581320207A415
:10086F00EB9FF5F0EA9E42F0E99D42F0E89C45F0DF
:01087F002256
:10088000D083D082F8E4937012740193700DA3A307
:1008900093F8740193C0E0E8C0E0227402936860AA
:0608A000EFA3A3A380DF1B
:10076900020465E493A3F8E493A34003F68001F23D
:1007790008DFF48029E493A3F85407240CC8C33391
:10078900C4540F4420C8834004F456800146F6DF60
:10079900E4800B01020408102040809009D2E47E15
:1007A900019360BCA3FF543F30E509541FFEE49355
:1007B900A360010ECF54C025E060A840B8E493A31C
:1007C900FAE493A3F8E493A3C8C582C8CAC583CA47
:1007D900F0A3C8C582C8CAC583CADFE9DEE780BEFF
:0109E800000E
:00000001FF
